{
  "_format": "hh-sol-artifact-1",
  "contractName": "Genesis",
  "sourceName": "src/contracts/Genesis.sol",
  "abi": [
    {
      "inputs": [
        {
          "internalType": "uint256",
          "name": "_projectTax",
          "type": "uint256"
        }
      ],
      "stateMutability": "nonpayable",
      "type": "constructor"
    },
    {
      "anonymous": false,
      "inputs": [
        {
          "indexed": false,
          "internalType": "uint256",
          "name": "id",
          "type": "uint256"
        },
        {
          "indexed": false,
          "internalType": "string",
          "name": "actionType",
          "type": "string"
        },
        {
          "indexed": true,
          "internalType": "address",
          "name": "executor",
          "type": "address"
        },
        {
          "indexed": false,
          "internalType": "uint256",
          "name": "timestamp",
          "type": "uint256"
        }
      ],
      "name": "Action",
      "type": "event"
    },
    {
      "inputs": [
        {
          "internalType": "uint256",
          "name": "id",
          "type": "uint256"
        }
      ],
      "name": "backProject",
      "outputs": [
        {
          "internalType": "bool",
          "name": "",
          "type": "bool"
        }
      ],
      "stateMutability": "payable",
      "type": "function"
    },
    {
      "inputs": [],
      "name": "balance",
      "outputs": [
        {
          "internalType": "uint256",
          "name": "",
          "type": "uint256"
        }
      ],
      "stateMutability": "view",
      "type": "function"
    },
    {
      "inputs": [
        {
          "internalType": "uint256",
          "name": "_taxPct",
          "type": "uint256"
        }
      ],
      "name": "changeTax",
      "outputs": [],
      "stateMutability": "nonpayable",
      "type": "function"
    },
    {
      "inputs": [
        {
          "internalType": "string",
          "name": "title",
          "type": "string"
        },
        {
          "internalType": "string",
          "name": "description",
          "type": "string"
        },
        {
          "internalType": "string",
          "name": "imageURL",
          "type": "string"
        },
        {
          "internalType": "uint256",
          "name": "cost",
          "type": "uint256"
        },
        {
          "internalType": "uint256",
          "name": "expiresAt",
          "type": "uint256"
        }
      ],
      "name": "createProject",
      "outputs": [
        {
          "internalType": "bool",
          "name": "",
          "type": "bool"
        }
      ],
      "stateMutability": "nonpayable",
      "type": "function"
    },
    {
      "inputs": [
        {
          "internalType": "uint256",
          "name": "id",
          "type": "uint256"
        }
      ],
      "name": "deleteProject",
      "outputs": [
        {
          "internalType": "bool",
          "name": "",
          "type": "bool"
        }
      ],
      "stateMutability": "nonpayable",
      "type": "function"
    },
    {
      "inputs": [
        {
          "internalType": "uint256",
          "name": "id",
          "type": "uint256"
        }
      ],
      "name": "getBackers",
      "outputs": [
        {
          "components": [
            {
              "internalType": "address",
              "name": "owner",
              "type": "address"
            },
            {
              "internalType": "uint256",
              "name": "contribution",
              "type": "uint256"
            },
            {
              "internalType": "uint256",
              "name": "timestamp",
              "type": "uint256"
            },
            {
              "internalType": "bool",
              "name": "refunded",
              "type": "bool"
            }
          ],
          "internalType": "struct Genesis.backerStruct[]",
          "name": "",
          "type": "tuple[]"
        }
      ],
      "stateMutability": "view",
      "type": "function"
    },
    {
      "inputs": [
        {
          "internalType": "uint256",
          "name": "id",
          "type": "uint256"
        }
      ],
      "name": "getProject",
      "outputs": [
        {
          "components": [
            {
              "internalType": "uint256",
              "name": "id",
              "type": "uint256"
            },
            {
              "internalType": "address",
              "name": "owner",
              "type": "address"
            },
            {
              "internalType": "string",
              "name": "title",
              "type": "string"
            },
            {
              "internalType": "string",
              "name": "description",
              "type": "string"
            },
            {
              "internalType": "string",
              "name": "imageURL",
              "type": "string"
            },
            {
              "internalType": "uint256",
              "name": "cost",
              "type": "uint256"
            },
            {
              "internalType": "uint256",
              "name": "raised",
              "type": "uint256"
            },
            {
              "internalType": "uint256",
              "name": "timestamp",
              "type": "uint256"
            },
            {
              "internalType": "uint256",
              "name": "expiresAt",
              "type": "uint256"
            },
            {
              "internalType": "uint256",
              "name": "backers",
              "type": "uint256"
            },
            {
              "internalType": "enum Genesis.statusEnum",
              "name": "status",
              "type": "uint8"
            }
          ],
          "internalType": "struct Genesis.projectStruct",
          "name": "",
          "type": "tuple"
        }
      ],
      "stateMutability": "view",
      "type": "function"
    },
    {
      "inputs": [],
      "name": "getProjects",
      "outputs": [
        {
          "components": [
            {
              "internalType": "uint256",
              "name": "id",
              "type": "uint256"
            },
            {
              "internalType": "address",
              "name": "owner",
              "type": "address"
            },
            {
              "internalType": "string",
              "name": "title",
              "type": "string"
            },
            {
              "internalType": "string",
              "name": "description",
              "type": "string"
            },
            {
              "internalType": "string",
              "name": "imageURL",
              "type": "string"
            },
            {
              "internalType": "uint256",
              "name": "cost",
              "type": "uint256"
            },
            {
              "internalType": "uint256",
              "name": "raised",
              "type": "uint256"
            },
            {
              "internalType": "uint256",
              "name": "timestamp",
              "type": "uint256"
            },
            {
              "internalType": "uint256",
              "name": "expiresAt",
              "type": "uint256"
            },
            {
              "internalType": "uint256",
              "name": "backers",
              "type": "uint256"
            },
            {
              "internalType": "enum Genesis.statusEnum",
              "name": "status",
              "type": "uint8"
            }
          ],
          "internalType": "struct Genesis.projectStruct[]",
          "name": "",
          "type": "tuple[]"
        }
      ],
      "stateMutability": "view",
      "type": "function"
    },
    {
      "inputs": [],
      "name": "owner",
      "outputs": [
        {
          "internalType": "address",
          "name": "",
          "type": "address"
        }
      ],
      "stateMutability": "view",
      "type": "function"
    },
    {
      "inputs": [
        {
          "internalType": "uint256",
          "name": "id",
          "type": "uint256"
        }
      ],
      "name": "pauOutProject",
      "outputs": [
        {
          "internalType": "bool",
          "name": "",
          "type": "bool"
        }
      ],
      "stateMutability": "nonpayable",
      "type": "function"
    },
    {
      "inputs": [],
      "name": "projectCount",
      "outputs": [
        {
          "internalType": "uint256",
          "name": "",
          "type": "uint256"
        }
      ],
      "stateMutability": "view",
      "type": "function"
    },
    {
      "inputs": [
        {
          "internalType": "uint256",
          "name": "",
          "type": "uint256"
        }
      ],
      "name": "projectExist",
      "outputs": [
        {
          "internalType": "bool",
          "name": "",
          "type": "bool"
        }
      ],
      "stateMutability": "view",
      "type": "function"
    },
    {
      "inputs": [],
      "name": "projectTax",
      "outputs": [
        {
          "internalType": "uint256",
          "name": "",
          "type": "uint256"
        }
      ],
      "stateMutability": "view",
      "type": "function"
    },
    {
      "inputs": [
        {
          "internalType": "uint256",
          "name": "id",
          "type": "uint256"
        }
      ],
      "name": "requestRefund",
      "outputs": [
        {
          "internalType": "bool",
          "name": "",
          "type": "bool"
        }
      ],
      "stateMutability": "nonpayable",
      "type": "function"
    },
    {
      "inputs": [],
      "name": "stats",
      "outputs": [
        {
          "internalType": "uint256",
          "name": "totalProjects",
          "type": "uint256"
        },
        {
          "internalType": "uint256",
          "name": "totalBacking",
          "type": "uint256"
        },
        {
          "internalType": "uint256",
          "name": "totalDonations",
          "type": "uint256"
        }
      ],
      "stateMutability": "view",
      "type": "function"
    },
    {
      "inputs": [
        {
          "internalType": "uint256",
          "name": "id",
          "type": "uint256"
        },
        {
          "internalType": "string",
          "name": "title",
          "type": "string"
        },
        {
          "internalType": "string",
          "name": "description",
          "type": "string"
        },
        {
          "internalType": "string",
          "name": "imageURL",
          "type": "string"
        },
        {
          "internalType": "uint256",
          "name": "expiresAt",
          "type": "uint256"
        }
      ],
      "name": "updateProject",
      "outputs": [
        {
          "internalType": "bool",
          "name": "",
          "type": "bool"
        }
      ],
      "stateMutability": "nonpayable",
      "type": "function"
    }
  ],
  "bytecode": "0x608060405234801561001057600080fd5b5060405161229038038061229083398101604081905261002f91610049565b600080546001600160a01b03191633179055600155610062565b60006020828403121561005b57600080fd5b5051919050565b61221f806100716000396000f3fe6080604052600436106100f35760003560e01c80639f39a1941161008a578063d24cd3ec11610059578063d24cd3ec146102b1578063d80528ae146102c7578063dcc6012814610301578063f0f3f2c81461032357600080fd5b80639f39a1941461023b578063a4b2409e1461024e578063b69ef8a81461026e578063c9168b721461028457600080fd5b80638593054b116100c65780638593054b146101935780638875fb8d146101c35780638da5cb5b146101e35780639a3fa8c71461021b57600080fd5b8063056c29ee146100f857806336fbad261461012d5780633e45c8af146101515780634cd0cb2814610173575b600080fd5b34801561010457600080fd5b50610118610113366004611d28565b610350565b60405190151581526020015b60405180910390f35b34801561013957600080fd5b5061014360025481565b604051908152602001610124565b34801561015d57600080fd5b5061017161016c366004611dc2565b6107be565b005b34801561017f57600080fd5b5061011861018e366004611dc2565b610813565b34801561019f57600080fd5b506101186101ae366004611dc2565b600a6020526000908152604090205460ff1681565b3480156101cf57600080fd5b506101186101de366004611dc2565b610994565b3480156101ef57600080fd5b50600054610203906001600160a01b031681565b6040516001600160a01b039091168152602001610124565b34801561022757600080fd5b50610118610236366004611ddb565b610a94565b610118610249366004611dc2565b610d10565b34801561025a57600080fd5b50610118610269366004611dc2565b61111a565b34801561027a57600080fd5b5061014360035481565b34801561029057600080fd5b506102a461029f366004611dc2565b611211565b6040516101249190611e75565b3480156102bd57600080fd5b5061014360015481565b3480156102d357600080fd5b506004546005546006546102e692919083565b60408051938452602084019290925290820152606001610124565b34801561030d57600080fd5b506103166112b3565b604051610124919061202e565b34801561032f57600080fd5b5061034361033e366004611dc2565b61154e565b6040516101249190612090565b60008086511161039f5760405162461bcd60e51b81526020600482015260156024820152745469746c652063616e6e6f7420626520656d70747960581b60448201526064015b60405180910390fd5b60008551116103f05760405162461bcd60e51b815260206004820152601b60248201527f4465736372697074696f6e2063616e6e6f7420626520656d70747900000000006044820152606401610396565b60008451116104415760405162461bcd60e51b815260206004820152601960248201527f496d61676555524c2063616e6e206f7420626520656d707479000000000000006044820152606401610396565b600083116104875760405162461bcd60e51b8152602060048201526013602482015272436f73742063616e6e6f74206265207a65726f60681b6044820152606401610396565b61048f611b79565b600254815233602080830191825260408301898152606084018990526080840188905260a084018790524260e085015261010084018690526007805460018101825560009190915284517fa66cc928b5edb82af9bd49922954155ab7b0942694bea4ce44661d9a8736c688600b90920291820190815593517fa66cc928b5edb82af9bd49922954155ab7b0942694bea4ce44661d9a8736c689820180546001600160a01b0319166001600160a01b039092169190911790559051805185949361057c937fa66cc928b5edb82af9bd49922954155ab7b0942694bea4ce44661d9a8736c68a01920190611bec565b5060608201518051610598916003840191602090910190611bec565b50608082015180516105b4916004840191602090910190611bec565b5060a0820151600582015560c0820151600682015560e0820151600782015561010082015160088201556101208201516009820155610140820151600a8201805460ff1916600183600481111561060d5761060d611f31565b021790555050600280546000908152600a602090815260408083208054600160ff1990911681179091553384526008835281842080548083018255908552938390208751600b909502019384558683015190840180546001600160a01b0319166001600160a01b039092169190911790558501518051869550929361069a93908501929190910190611bec565b50606082015180516106b6916003840191602090910190611bec565b50608082015180516106d2916004840191602090910190611bec565b5060a0820151600582015560c0820151600682015560e0820151600782015561010082015160088201556101208201516009820155610140820151600a8201805460ff1916600183600481111561072b5761072b611f31565b0217905550505060016004600001600082825461074891906120c0565b90915550506002805433916000805160206121ca8339815191529190600061076f836120d8565b9091555060408051918252606060208301819052600f908301526e141493d29150d50810d49150551151608a1b6080830152429082015260a00160405180910390a25060019695505050505050565b6000546001600160a01b0316331461080e5760405162461bcd60e51b81526020600482015260136024820152724f776e6572207265736572766564206f6e6c7960681b6044820152606401610396565b600155565b60008060078381548110610829576108296120f3565b60009182526020909120600a600b90920201015460ff16600481111561085157610851611f31565b1461089e5760405162461bcd60e51b815260206004820152601760248201527f50726f6a656374206e6f206c6f6e67657220666f756e640000000000000000006044820152606401610396565b600782815481106108b1576108b16120f3565b60009182526020909120600b90910201600101546001600160a01b031633146108ec5760405162461bcd60e51b815260040161039690612109565b600360078381548110610901576109016120f3565b60009182526020909120600a600b9092020101805460ff1916600183600481111561092e5761092e611f31565b021790555061093c8261182e565b60408051838152606060208201819052600f908201526e141493d29150d50811115311551151608a1b60808201524281830152905133916000805160206121ca833981519152919081900360a00190a2506001919050565b60006001600783815481106109ab576109ab6120f3565b60009182526020909120600a600b90920201015460ff1660048111156109d3576109d3611f31565b14610a205760405162461bcd60e51b815260206004820152601a60248201527f50726f6a656374206e6f206c6f6e67657220415050524f5645440000000000006044820152606401610396565b60078281548110610a3357610a336120f3565b60009182526020909120600b90910201600101546001600160a01b0316331480610a6757506000546001600160a01b031633145b610a835760405162461bcd60e51b815260040161039690612109565b610a8c8261199c565b506001919050565b600060078681548110610aa957610aa96120f3565b60009182526020909120600b90910201600101546001600160a01b03163314610ae45760405162461bcd60e51b815260040161039690612109565b6000855111610b2d5760405162461bcd60e51b81526020600482015260156024820152745469746c652063616e6e6f7420626520656d70747960581b6044820152606401610396565b6000845111610b7e5760405162461bcd60e51b815260206004820152601b60248201527f4465736372697074696f6e2063616e6e6f7420626520656d70747900000000006044820152606401610396565b6000835111610bcf5760405162461bcd60e51b815260206004820152601860248201527f49616d676555524c2063616e6e6f7420626520656d70747900000000000000006044820152606401610396565b8460078781548110610be357610be36120f3565b90600052602060002090600b02016002019080519060200190610c07929190611bec565b508360078781548110610c1c57610c1c6120f3565b90600052602060002090600b02016003019080519060200190610c40929190611bec565b508260078781548110610c5557610c556120f3565b90600052602060002090600b02016004019080519060200190610c79929190611bec565b508160078781548110610c8e57610c8e6120f3565b90600052602060002090600b020160080181905550336001600160a01b03166000805160206121ca8339815191528742604051610cfc929190918252606060208301819052600f908301526e141493d29150d50815541110551151608a1b6080830152604082015260a00190565b60405180910390a250600195945050505050565b6000803411610d615760405162461bcd60e51b815260206004820152601f60248201527f4574686572206d7573742062652067726561746572207468616e207a65726f006044820152606401610396565b6000828152600a602052604090205460ff16610db35760405162461bcd60e51b8152602060048201526011602482015270141c9bda9958dd081b9bdd08199bdd5b99607a1b6044820152606401610396565b600060078381548110610dc857610dc86120f3565b60009182526020909120600a600b90920201015460ff166004811115610df057610df0611f31565b14610e3d5760405162461bcd60e51b815260206004820152601860248201527f50726f6a656374206e6f206c6f6e676572206f70656e656400000000000000006044820152606401610396565b600160046001016000828254610e5391906120c0565b909155505060068054349190600090610e6d9084906120c0565b925050819055503460078381548110610e8857610e886120f3565b90600052602060002090600b02016006016000828254610ea891906120c0565b92505081905550600160078381548110610ec457610ec46120f3565b90600052602060002090600b02016009016000828254610ee491906120c0565b9091555050600082815260096020908152604080832081516080808201845233808352348387019081524284870181815260608087018b8152885460018082018b55998d529b8b902097516004909c0290970180546001600160a01b0319166001600160a01b03909c169b909b178b559251968a01969096559451600289015592516003909701805460ff1916971515979097179096558351888152948501829052600e918501919091526d141493d29150d508109050d2d15160921b90840152908201526000805160206121ca8339815191529060a00160405180910390a260078281548110610fd757610fd76120f3565b90600052602060002090600b02016005015460078381548110610ffc57610ffc6120f3565b90600052602060002090600b0201600601541061109f57600160078381548110611028576110286120f3565b60009182526020909120600a600b9092020101805460ff1916600183600481111561105557611055611f31565b02179055506007828154811061106d5761106d6120f3565b90600052602060002090600b0201600601546003600082825461109091906120c0565b90915550610a8c90508261182e565b600782815481106110b2576110b26120f3565b90600052602060002090600b0201600801544210610a8c576002600783815481106110df576110df6120f3565b60009182526020909120600a600b9092020101805460ff1916600183600481111561110c5761110c611f31565b0217905550610a8c8261182e565b6000600260078381548110611131576111316120f3565b60009182526020909120600a600b90920201015460ff16600481111561115957611159611f31565b1415806111a15750600360078381548110611176576111766120f3565b60009182526020909120600a600b90920201015460ff16600481111561119e5761119e611f31565b14155b6111fc5760405162461bcd60e51b815260206004820152602660248201527f50726f6a656374206e6f74206d61726b656420617320726576657274206f722060448201526564656c65746560d01b6064820152608401610396565b6002600783815481106110df576110df6120f3565b606060096000838152602001908152602001600020805480602002602001604051908101604052809291908181526020016000905b828210156112a8576000848152602090819020604080516080810182526004860290920180546001600160a01b03168352600180820154848601526002820154928401929092526003015460ff16151560608301529083529092019101611246565b505050509050919050565b60606007805480602002602001604051908101604052809291908181526020016000905b828210156115455760008481526020908190206040805161016081018252600b86029092018054835260018101546001600160a01b0316938301939093526002830180549293929184019161132b90612136565b80601f016020809104026020016040519081016040528092919081815260200182805461135790612136565b80156113a45780601f10611379576101008083540402835291602001916113a4565b820191906000526020600020905b81548152906001019060200180831161138757829003601f168201915b505050505081526020016003820180546113bd90612136565b80601f01602080910402602001604051908101604052809291908181526020018280546113e990612136565b80156114365780601f1061140b57610100808354040283529160200191611436565b820191906000526020600020905b81548152906001019060200180831161141957829003601f168201915b5050505050815260200160048201805461144f90612136565b80601f016020809104026020016040519081016040528092919081815260200182805461147b90612136565b80156114c85780601f1061149d576101008083540402835291602001916114c8565b820191906000526020600020905b8154815290600101906020018083116114ab57829003601f168201915b505050918352505060058201546020820152600682015460408201526007820154606082015260088201546080820152600982015460a0820152600a82015460c09091019060ff16600481111561152157611521611f31565b600481111561153257611532611f31565b81525050815260200190600101906112d7565b50505050905090565b611556611b79565b6000828152600a602052604090205460ff166115a85760405162461bcd60e51b8152602060048201526011602482015270141c9bda9958dd081b9bdd08199bdd5b99607a1b6044820152606401610396565b600782815481106115bb576115bb6120f3565b90600052602060002090600b020160405180610160016040529081600082015481526020016001820160009054906101000a90046001600160a01b03166001600160a01b03166001600160a01b0316815260200160028201805461161e90612136565b80601f016020809104026020016040519081016040528092919081815260200182805461164a90612136565b80156116975780601f1061166c57610100808354040283529160200191611697565b820191906000526020600020905b81548152906001019060200180831161167a57829003601f168201915b505050505081526020016003820180546116b090612136565b80601f01602080910402602001604051908101604052809291908181526020018280546116dc90612136565b80156117295780601f106116fe57610100808354040283529160200191611729565b820191906000526020600020905b81548152906001019060200180831161170c57829003601f168201915b5050505050815260200160048201805461174290612136565b80601f016020809104026020016040519081016040528092919081815260200182805461176e90612136565b80156117bb5780601f10611790576101008083540402835291602001916117bb565b820191906000526020600020905b81548152906001019060200180831161179e57829003601f168201915b505050918352505060058201546020820152600682015460408201526007820154606082015260088201546080820152600982015460a0820152600a82015460c09091019060ff16600481111561181457611814611f31565b600481111561182557611825611f31565b90525092915050565b60005b600082815260096020526040902054811015611998576000828152600960205260408120805483908110611867576118676120f3565b6000918252602080832060049092029091015485835260099091526040822080546001600160a01b03909216935090849081106118a6576118a66120f3565b906000526020600020906004020160010154905060016009600086815260200190815260200160002084815481106118e0576118e06120f3565b906000526020600020906004020160030160006101000a81548160ff0219169083151502179055504260096000868152602001908152602001600020848154811061192d5761192d6120f3565b90600052602060002090600402016002018190555061194c8282611b14565b6001600460010160008282546119629190612171565b90915550506006805482919060009061197c908490612171565b9250508190555050508080611990906120d8565b915050611831565b5050565b6000600782815481106119b1576119b16120f3565b90600052602060002090600b020160060154905060006064600154836119d79190612188565b6119e191906121a7565b90506004600784815481106119f8576119f86120f3565b60009182526020909120600a600b9092020101805460ff19166001836004811115611a2557611a25611f31565b0217905550611a6c60078481548110611a4057611a406120f3565b600091825260209091206001600b9092020101546001600160a01b0316611a678385612171565b611b14565b600054611a82906001600160a01b031682611b14565b60078381548110611a9557611a956120f3565b90600052602060002090600b02016006015460036000828254611ab89190612171565b909155505060408051848152606060208201819052601190820152700282927a522a1aa102820a4a21027aaaa1607d1b60808201524281830152905133916000805160206121ca833981519152919081900360a00190a2505050565b6000826001600160a01b03168260405160006040518083038185875af1925050503d8060008114611b61576040519150601f19603f3d011682016040523d82523d6000602084013e611b66565b606091505b5050905080611b7457600080fd5b505050565b6040518061016001604052806000815260200160006001600160a01b03168152602001606081526020016060815260200160608152602001600081526020016000815260200160008152602001600081526020016000815260200160006004811115611be757611be7611f31565b905290565b828054611bf890612136565b90600052602060002090601f016020900481019282611c1a5760008555611c60565b82601f10611c3357805160ff1916838001178555611c60565b82800160010185558215611c60579182015b82811115611c60578251825591602001919060010190611c45565b50611c6c929150611c70565b5090565b5b80821115611c6c5760008155600101611c71565b634e487b7160e01b600052604160045260246000fd5b600082601f830112611cac57600080fd5b813567ffffffffffffffff80821115611cc757611cc7611c85565b604051601f8301601f19908116603f01168101908282118183101715611cef57611cef611c85565b81604052838152866020858801011115611d0857600080fd5b836020870160208301376000602085830101528094505050505092915050565b600080600080600060a08688031215611d4057600080fd5b853567ffffffffffffffff80821115611d5857600080fd5b611d6489838a01611c9b565b96506020880135915080821115611d7a57600080fd5b611d8689838a01611c9b565b95506040880135915080821115611d9c57600080fd5b50611da988828901611c9b565b9598949750949560608101359550608001359392505050565b600060208284031215611dd457600080fd5b5035919050565b600080600080600060a08688031215611df357600080fd5b85359450602086013567ffffffffffffffff80821115611e1257600080fd5b611e1e89838a01611c9b565b95506040880135915080821115611e3457600080fd5b611e4089838a01611c9b565b94506060880135915080821115611e5657600080fd5b50611e6388828901611c9b565b95989497509295608001359392505050565b602080825282518282018190526000919060409081850190868401855b82811015611ed757815180516001600160a01b031685528681015187860152858101518686015260609081015115159085015260809093019290850190600101611e92565b5091979650505050505050565b6000815180845260005b81811015611f0a57602081850181015186830182015201611eee565b81811115611f1c576000602083870101525b50601f01601f19169290920160200192915050565b634e487b7160e01b600052602160045260246000fd5b60058110611f6557634e487b7160e01b600052602160045260246000fd5b9052565b6000610160825184526020830151611f8c60208601826001600160a01b03169052565b506040830151816040860152611fa482860182611ee4565b91505060608301518482036060860152611fbe8282611ee4565b91505060808301518482036080860152611fd88282611ee4565b91505060a083015160a085015260c083015160c085015260e083015160e08501526101008084015181860152506101208084015181860152506101408084015161202482870182611f47565b5090949350505050565b6000602080830181845280855180835260408601915060408160051b870101925083870160005b8281101561208357603f19888603018452612071858351611f69565b94509285019290850190600101612055565b5092979650505050505050565b6020815260006120a36020830184611f69565b9392505050565b634e487b7160e01b600052601160045260246000fd5b600082198211156120d3576120d36120aa565b500190565b60006000198214156120ec576120ec6120aa565b5060010190565b634e487b7160e01b600052603260045260246000fd5b602080825260139082015272556e617574686f72697a656420456e7469747960681b604082015260600190565b600181811c9082168061214a57607f821691505b6020821081141561216b57634e487b7160e01b600052602260045260246000fd5b50919050565b600082821015612183576121836120aa565b500390565b60008160001904831182151516156121a2576121a26120aa565b500290565b6000826121c457634e487b7160e01b600052601260045260246000fd5b50049056feaee8e5d3bbb2f71a951b5632cee20f7ac487b9f8ab4f66a236f7694b13af7c6aa264697066735822122007f96aced5196982e0a5df67bbec89f1c17d61cf04c2894e8f2400b32a87327364736f6c634300080b0033",
  "linkReferences": {},
  "deployedLinkReferences": {}
}